:10000000020003758131120109E582600302006F6D
:10001000780079007A007B007C007D00EC4D601C4C
:1000200088828983E493A3A882A9838A828B83F040
:10003000A3AA82AB831CBCFFE31D80E07582007520
:1000400083007C007D00EC4D600AE4F0A31CBCFF43
:10005000F51D80F27582007583007C007D00EC4DFB
:10006000600AE4F0A31CBCFFF51D80F21200A1128F
:1000700001FF80FE0A0A415438394C50353152781C
:1000800032205350492041444320746573742070DA
:10009000726F6772616D2E0A0025352E3366000A75
:1000A00000228582E0A2E792A1D2A3A2A292F7C287
:1000B000A3A2E692A1D2A3A2A292F6C2A3A2E59223
:1000C000A1D2A3A2A292F5C2A3A2E492A1D2A3A21A
:1000D000A292F4C2A3A2E392A1D2A3A2A292F3C2DB
:1000E000A3A2E292A1D2A3A2A292F2C2A3A2E192FF
:1000F000A1D2A3A2A292F1C2A3A2E092A1D2A3A2F2
:10010000A292F0C2A385F08222758E1175E6007569
:10011000E70075D60075D70075CE0075CF0075C69F
:100120000075C700C2A0C2A3D2A2438780759852AF
:10013000759B00759AF4759B1E75AE007582002242
:10014000AA82C28C5389F0438901EA24FA5006EA54
:1001500024FBFA80027A018A1C751D00751E007549
:100160001F0090FFEA74FFF5F0120307AA82AB8329
:10017000C28D8B047D008C8C7B008A8AD28C308D62
:10018000FD22AA82AB837C007D00C3EC9AED9B50DC
:100190002B7E00BE0400501D7582FAC002C003C051
:1001A00004C005C006120140D006D005D004D0031B
:1001B000D0020E80DE0CBC00D10D80CE22AA82C2FD
:1001C000A0758201C0021200A2D002EAC454F0FA63
:1001D00074804AF5821200A2AA8274035AFC7B0042
:1001E000758200C003C0041200A2AA82D004D0030A
:1001F0007D00EA2BFBED3CFCD2A08B828C8322900D
:1002000003E81201827474C0E07400C0E07480C01E
:10021000E01204391581158115817A00BA01004078
:10022000030202EF9003E8C002120182D0028A8228
:10023000C0021201BD120375AB82AC83ADF0FEC0EB
:1002400003C004C005C00690126F75F0837440129D
:100250000381AB82AC83ADF0FEE58124FCF581E443
:10026000C0E074C0C0E0747FC0E07444C0E08B8222
:100270008C838DF0EE120465AB82AC83ADF0FEE5AD
:100280008124FCF5817452C0E074B8C0E0742EC0C3
:10029000E07440C0E08B828C838DF0EE12045AAB88
:1002A00082AC83ADF0FEE58124FCF581C003C0047F
:1002B000C005C00690000075F0C87442120381ABFF
:1002C00082AC83ADF0FEE58124FCF581C003C0045F
:1002D000C005C0067499C0E07400C0E07480C0E03E
:1002E000120439E58124F9F581D0020A02021C7456
:1002F0009FC0E07400C0E07480C0E0120439158132
:100300001581158102021AAAF0FBE582851CF0A472
:10031000FCADF0E583851CF0A42DFDE435F0FEE591
:1003200082851DF0A42DFDE5F03EFEE433FFEA8555
:100330001CF0A42EFEE5F03FFFE583851DF0A42E02
:10034000FEE5F03FFFE582851EF0A42EFEE5F03FBE
:10035000FFEB851CF0A42FFFEA851DF0A42FFFE51D
:1003600083851EF0A42FFFE582851FF0A42F8EF059
:100370008D838C8222E4AC83AB82FAF9748E020501
:100380008D120619BC00030205B8EF60FA30D502E1
:10039000B2D1E583B4FF030205CEE582B4FF0302C8
:1003A00005CE258340072482400B0205B824831420
:1003B00050030205CEF582EA8DF0A4A8F0EA8EF093
:1003C000A428F8E435F0F9EB8DF0A428E935F0F92C
:1003D000E433CA8FF0A429F9EA35F0FAEBF88EF08D
:1003E000A429F9EA35F0FAE433FBEC8DF0A429F9FD
:1003F000EA35F0FAE43BFBE88FF0A42AFAEB35F09B
:10040000FBE433CCFD8EF0A42AFAEB35F0FBE43CA0
:10041000FCED8FF0A42BFBEC35F0FC20E70312057C
:10042000E6020597020FD385821885831985F01A95
:1004300085091B900424020A26C008858108E50866
:1004400024FBF51BE50824FBF886180886190886A6
:100450001A900424120A26D00822A8811818C6B2BD
:10046000E7C6020FE812061930D502B2D1BF000963
:10047000BC00030205DB0205CEBC00030205B8E5A3
:1004800083B4FF0BE582B4FF030205DB0205B8E588
:1004900082B4FF030205CEC395835007247F400B2F
:1004A0000205B824801450030205CEC0E0E4CCCB92
:1004B000CAF98D1C8E1D8F1EEF54F0C4F51F758375
:1004C00006851FF0EB84F582E9C4F9EAC4FAEBC4AF
:1004D000FBEC540FC47803D6FC18EBD6FB18EAD615
:1004E000FA8582F0EDA4A8F0FD8582F0EEA428FE46
:1004F000E435F0F88582F0EFA428FFE435F0F8E960
:100500009DF9EA9EFAEB9FFBEC98FCAD1CAE1DAF8B
:100510001E30E7101582E92DF9EA3EFAEB3FFBE4C5
:100520003CFC80EDC082D58398C3E933F9EA33FA05
:10053000EB33FBEC33FCC3E99DEA9EEB9FEC9400AC
:10054000B3E413F9D002D0E0C44AFAD003D0E0C437
:100550004BFBD004D0E0F5F0540FC44CFCD0821516
:100560008230F40FD3EC13FCEB13FBEA13FAE9131C
:10057000F90582E930E70A74012AFAE43BFBE43C1E
:10058000FC0205AFFCABF0AA83A982749EC2D1F530
:10059000821205E6020597B98003EA13B34010EA18
:1005A0002401FAE43BFBE43CFC50047C800582BC63
:1005B000000EBB000BBA0008E4F5F0F583F58222CB
:1005C000A2D1E582138CF092F78B838A8222E4F524
:1005D00083F58275F080F4A2D11322E4F583F582CD
:1005E00075F0C0747F227804EC7011E58224F85015
:1005F0000AF582E4C9CACBFCD8EF22EC7820058248
:1006000020E713D5820122C3E933F9EA33FAEB3349
:10061000FBEC33FCD8EA158222AA82AB83A2F73323
:1006200092D16002D2F7F582ACF0E58124F9F8E6C8
:10063000FD08E6FE0886F008E6A2F73392D56002D0
:10064000D2F7F583AFF022AA827458C0E07406C0D6
:10065000E0C00AC00B8A82220511E4B5110205121E
:1006600022AA8274302AFA24C6500A74072AFA3061
:1006700000034302208A82020647E582FAC4540F2F
:10068000F582C002120661D002740F5AF58202068A
:1006900061AA0CAB0DAC0EAD0FAE10751720EE2E8F
:1006A000FEED235401FF4206EA2AFAEB33FBEC335A
:1006B000FCED33FDC3EE95134008EEC39513FE43E6
:1006C0000201D517D98A0C8B0D8C0E8D0F8E10223E
:1006D000782EE624D075F00AA4FA782FE624D02AE2
:1006E000FA782D8603BB2D04C3E49AFA751301C36F
:1006F000E464808AF063F08095F050297517038ACE
:100700000374F62517401C0513E517142422F8E599
:10071000172422F98704A604772E1BEBFA60040540
:100720001780DE8B02EA30E70D782386037824A653
:10073000037823762E0AE515600AE51504FB2513D8
:10074000F5138005300B02051378228603E4BB2DD8
:100750000104FB7006200603300702051330040372
:10076000020817300557EB600C75822DC002120687
:1007700047D002801C30060C75822BC0021206473F
:10078000D002800D30070A758220C002120647D0C1
:100790000278238604BC2E0C758230C002120647F4
:1007A000D0021514AC141514C3E5139C40030208C1
:1007B0005B758230C002120647D00280E7AC141588
:1007C00014C3E5139C500C758220C002120647D05A
:1007D0000280EA78228604BC2D0C75822DC002129C
:1007E0000647D002801C30060C75822BC002120610
:1007F00047D002800D30070A758220C002120647DA
:10080000D00278238604BC2E52758230C0021206B4
:1008100047D00215148044EB600E75822DC0021281
:100820000647D0021514802030060E75822BC002B8
:10083000120647D0021514800F30070C758220C0B5
:1008400002120647D002151478238603BB2E0C75BE
:100850008230C002120647D0021514751701C20D6E
:10086000E5172422F88603BB4503020918BB2E3482
:100870008A03C3E464808BF063F08095F0500F75B9
:100880008230C003120647D0031B8B0280E48B0228
:10089000D20DE5157038200B0302091875822E124F
:1008A00006478074300D278A03EB30E71FC3E464EA
:1008B000808515F063F08095F0500C758230C00390
:1008C000120647D00315150B8B0280DD8B02300D0D
:1008D0000EC3E464808515F063F08095F05021E547
:1008E000172422F886038B82C002120647D00230FA
:1008F0000D0EE5172422F88603BB2E028002151583
:100900001514C3E464808515F063F08095F040030E
:10091000200D050517020860C3E464808515F063A7
:10092000F08095F0500A758230120647151580E860
:1009300030040FAA141514EA6008758220120647C5
:1009400080F122E5157003300B0D74072515FAE5CB
:1009500014C39AF5148006E51424FAF514751700EB
:1009600078228602BA2B0F20060C782276202007E8
:10097000057517010514200419AA14C3E464808ABC
:10098000F063F08095F0500A758220120647151426
:1009900080E7C20DE5172422F88602BA00028069BA
:1009A000BA451F3000027665C3E464808515F063A4
:1009B000F08095F0500A758230120647151580E8D0
:1009C000D20DC3E5179402E433FA7014EA700EC333
:1009D000E464808515F063F08095F04003300D16D7
:1009E000E5172422F886028A82120647E51724FDBD
:1009F00050121515800E7402B51709300B0675825A
:100A00002E1206470517020994300419AA14C3E4EC
:100A100064808AF063F08095F0500A758220120697
:100A200047151480E72285820A85830BE4F511F5CA
:100A300012AA18AB19AC1A8A828B838CF01210415F
:100A4000FD74012AF518E43BF5198C1AEDFA7003D0
:100A5000020FCCBA25028003020FC4C204C205C231
:100A600006C207C208C209C20AC20BC201C202C240
:100A7000037513007514007515FFAB18AC19AD1A8A
:100A80008B828C838DF0121041FAA3AB82AC838BE6
:100A9000188C198D1ABA25078A8212064780928A05
:100AA00006BE3000402E8A06EE24C6402774FFB5ED
:100AB0001513E51475F00AA4FEEA24D02EF514707F
:100AC000BFD20580BBE51575F00AA4FEEA24D02E3E
:100AD000F51580ACBA2E0A74FFB515A47515008003
:100AE0009F8A06BE6100400E8A06EE2485400753A9
:100AF00002DFD2008002C200BA20028075BA23034E
:100B0000020B81BA2A03020B86BA2B02805FBA2D30
:100B1000028055BA4202805FBA4303020BCBBA444B
:100B200003020D06BA4503020D20BA4603020D1C4E
:100B3000BA4703020D24BA4903020D06BA4C0280DB
:100B40003BBA4E03020D28BA4F03020D0DBA5003F3
:100B5000020C9FBA5303020BEFBA5503020D12BAEF
:100B60005803020D17020D52D204020A80D2060267
:100B70000A80D207020A80D209020A80D20A020A37
:100B800080D20B020A8074FFB5152030090BE51BDB
:100B900014F8881B8614020A80E51B24FEF8881BC3
:100BA0008606088607188E14020A8030090BE51B9A
:100BB00014F8881B8615020A80E51B24FEF8881BA2
:100BC0008606088607188E15020A8030090AE51B7A
:100BD00014F8881B8602800FE51B24FEF8881B860C
:100BE00003088604188B028A82120647020D57E515
:100BF0001B24FDF8881B8603088604088605181840
:100C00008B0C8C0D8D0E8B828C838DF0121195AB1D
:100C100082AC838B1674FFB5150385161520041D51
:100C2000C3E51695145016E514C39516F514AB14C8
:100C30001514EB600875822012064780F1850C823E
:100C4000850D83850EF0121041FBFA6029AB151556
:100C500015C3E464808BF063F08095F050188A82AD
:100C6000120647AB0CAC0DAD0E0BBB00010C8B0C90
:100C70008C0D8D0E80C7200403020D57C3E5169519
:100C8000144003020D57E514C39516F514AB141563
:100C900014EB7003020D5775822012064780EEE5B3
:100CA0001B24FDF8881B860308860408860518188F
:100CB0008B0C8C0D8D0EE50EFB30E7047A43801310
:100CC000EB546060047A50800AEB30E6047A498085
:100CD000027A588A82C00212064775823A12064783
:100CE000758230120647758278120647D002BA49DB
:100CF00002800BBA50028006850D8212067A850C9E
:100D00008212067A8051D20875130A804A75130838
:100D1000804575130A8040751310803BD2018037DF
:100D2000D2028033D203802FE51B24FDF8881B8676
:100D30000308860408860518188B0C8C0D8D0E8B05
:100D4000828C838DF0E51112117CA3E51212117CC7
:100D500080058A82120647200106200203300370B4
:100D6000E51B24FCF8881B86030886040886050812
:100D700086061818188B0C8C0D8D0E8E0FE50CE561
:100D80000DE50EE50F8B828C838DF0EE12105D74F5
:100D9000FFB51503751506300327747F550FFB8BC0
:100DA00010E510EB2BFB8B10E50E30E706740145C8
:100DB00010F510E51024684006749925104002D201
:100DC00002300206120943020A311206D0020A3129
:100DD000E5137003020A317B2730092BE51B14F859
:100DE000881BE6FC3395E0FDFEFF8C0C8D0D8E0E0E
:100DF0008F0F20085EAC0C7D007E007F008C0C8D78
:100E00000D8E0E8F0F804C300A1FE51B24FCF888D6
:100E10001B86040886050886060886071818188C9D
:100E20000C8D0D8E0E8F0F802AE51B24FEF8881B7B
:100E3000860408860518ED3395E0FEFF8C0C8D0DB9
:100E40008E0E8F0F20080CAC0CAD0D7E007F008E37
:100E50000E8F0F300B43E50C450D450E450F6039E5
:100E60007408B5130C758230C003120647D0038096
:100E7000287410B51323758230C003120647D003BF
:100E800030000C758278C003120647D003800A75C3
:100E90008258C003120647D003300825AC0CAD0DB4
:100EA000AE0EE50FFF30E717C3E49CFCE49DFDE4C4
:100EB0009EFEE49FFF8C0C8D0D8E0E8F0F8002C264
:100EC00008751600D20C8B00751000C00012069138
:100ED000D000200C0DE510C4FCE6FD4CF61888038C
:100EE0008002A6100516B20CE50C450D450E450F07
:100EF00070D68803E514700375140120051A2004C8
:100F000017E51604FCC39514500E758220C0031219
:100F10000647D003151480E930080E75822DC003F2
:100F2000120647D00315148024E516602030060E03
:100F300075822BC003120647D0031514800F3007AB
:100F40000C758220C003120647D003151420041E1E
:100F5000AC141514C3E5169C50273005047C308072
:100F6000027C208C82C003120647D00380E2C3E5D6
:100F70001695145009E514C39516F51480037514DD
:100F8000008B00AB161516EB6022B20C200C0A0881
:100F9000E6C4540FFB8B1080078603740F5BF510BB
:100FA000851082C000120661D00080D720040302A1
:100FB0000A31AB141514EB7003020A31758220124A
:100FC000064780EE8A82120647020A318511828521
:100FD000128322AA82BA0A0810990280FB75990D21
:100FE00010990280FB8A99221206197900E583B5CF
:100FF0008202800D50031211BDE583C39582121148
:10100000D7E5D0C465D020E117EA2DFAEB3EFBEC22
:101010003FFC500974011211D7EC4480FC02059783
:10102000C3EA9DFAEB9EFBEC9FFC500FC3E499F9D9
:10103000E49AFAE49BFBE49CFCB2D11205E60205BB
:101040009720F71430F6148883A88220F507E6A8C5
:101050008375830022E280F7E49322E022C0E0F867
:101060004582458345F07009F5F0FBFCFDFE021159
:101070002BE823A2F792E0F8A982AA83D2F7ABF07B
:101080007C007E07C3749798404074FF2EFE740A5C
:1010900089F0A4F985F082740A8AF0A4FA85F083B5
:1010A000740A8BF0A4FB740529F9EA3582FAEB3552
:1010B00083FB740035F0FCC3EC13FCEB13FBEA1369
:1010C000FAE913F908EC70EF80BAE8C3947FF88B63
:1010D000838EF0E4FBFCFDFEFF08C3E933F9EA333D
:1010E000FAE58333F583EB3BD4FBEC3CD4FCED3DDC
:1010F000D4FDEE3ED4FEEF3FD4FF602D05F0740525
:101100002BD4FBE43CD4FCE43DD4FDE43ED4FEE42B
:101110003FD4FF758204C3EF13FFEE13FEED13FD02
:10112000EC13FCEB13FBD582EDD8AF7822D0E02096
:10113000E704762B8002762D087906E7C4540F4425
:1011400030F608B90603762E08E7540F4430F60847
:1011500019B902E7764508E5F020E704762B80040C
:10116000762DF4040875F00A844430F608E5F0445E
:1011700030F608E4F690002275F0402220F7103097
:10118000F6118883A88220F507F6A88375830022CC
:10119000F280F7F022AA82AB83ACF07D007E008A59
:1011A000828B838CF0121041FFA3AA82AB83EF6085
:1011B000070DBD00EA0E80E78D828E8322E582C591
:1011C00083F582A2D133A2D592D11392D5ECCFFC74
:1011D000EBCEFBEACDFA226040F82582500274FF84
:1011E000F582E824F8501ECCCBCAF9E4CC24F850A0
:1011F00014CBCAF9E4CB24F8500BCAF9E4CA24F89A
:10120000500379002224086010F8C3EC13FCEB13A0
:10121000FBEA13FAE913F9D8F122000000000000FC
:00000001FF
